:020000000D28C9
:100008007E14803120007F08F0007008FF007E1009
:1000180009000E2820308400003085000E304D2164
:100028007E10200017285321322122000E120E10B4
:100038008E100E11200024082504031D26282200F6
:100048000E16282822000E122000240C2200031C61
:100058000E1003180E142000240C2200031C8E120C
:1000680003188E1620002C082D04031D3E2822009C
:100078008E14402822008E1020002C0C2200031C15
:100088000E1103180E1520002C0C2200031C0C1155
:1000980003180C1520000C1A92280130A80700300C
:1000A800A93D2908803AB00080303002031D5E283F
:1000B8001A302802031C942820002C082D04031D44
:1000C8006728013068280030B000B1013008AC0062
:1000D8003108AD002C082D04031D752822000C15CD
:1000E800772822000C1120002C0C2200031C8E10F3
:1000F80003188E1420002C082D04031D86282200C6
:100108000E15882822000E1120000C1A942814308D
:100118002000AE000030AF000A218828A801A901FC
:1001280020008C1AD8280130A6070030A73D2708E0
:10013800803AB00080303002031DA4281A3026020D
:10014800031C4E28200024082504031DAD28013077
:10015800AE280030B000B1013008A4003108A50075
:1001680024082504031DBB2822008E16BD28220062
:100178008E122000240C2200031C0E1203180E16E7
:10018800200024082504031DCC2822000E14CE28A4
:1001980022000E1020008C1A4E2814302000AE00C9
:1001A8000030AF000A21CE28A601A7014E28003052
:1001B800FC000030FB000030FA000030F900711C30
:1001C800ED287508F9077608FA3D7708FB3D7808A9
:1001D800FC3D0130F535F60DF70DF80D890BEE28CD
:1001E8000130F436F30CF20CF10C890BF528740885
:1001F800730472047104031DE3287C08F4007B086F
:10020800F3007A08F2007908F100080020002E08AF
:10021800F1002F08F200F301F4010030F80000307B
:10022800F7000330F600E830F500DB207408200002
:10023800A3007308A2007208A1007108A000230897
:1002480022042104200403190800FF30A007FF300E
:10025800A13DFF30A23DFF30A33D232921000C1012
:100268008C100C110C168C1623000C1221000E1089
:100278008E100E118E110E128E12432108002100CD
:100288009E171E088F3960389E00FC309E051D148D
:100298000800640080010131890B4E290034783050
:0802A800210099049A010800ED
:020000040001F9
:04000E00E4F9FFFF13
:00000001FF
