:020000000D28C9
:100008007E14803120007F08F0007008FF007E1009
:1000180009000E28203084000030850012305F224D
:100028003C30840082308500323086000030870002
:100038000E3065227E1020002B2A20000C1A34284E
:100048002B08803AC60080304602031D2D28013057
:100058002A02031C4528FF302000AA07FF30442845
:100068002B08803AC6004508803A4602031D3E2800
:1000780044082A020318452801302000AA07003046
:10008800AB3D20002A082B04031D8F280130A80748
:100098000030A93D3A033B04031D7C283C033D0482
:1000A800031D5A280130AC000030AD002908803A01
:1000B800C6003F08803A4602031D64283E0828020D
:1000C800031C8B28200038083904031D8B282E08B0
:1000D8002F04031D8B283F08A9003E08A800220012
:1000E8000C1101302000C2000030C30057218B28BA
:1000F80001302000AE000030AF00AC01AD0101308E
:10010800C2000030C30023212000B801B90120003B
:10011800BC01BD0108002B08803AC6004508803A9A
:100128004602031D992844082A02031C08002000DF
:100138003908C8003808C7002C032D04031DAC2853
:1001480047084804031DAC280030C200C30023211F
:1001580020003A0C2200031C0C1103180C15003067
:100168002000C200C30057212000AE01AF01AC013E
:10017800AD010130BC000030BD00A801A90145084F
:10018800AB004408AA00080020008C1ADB282708C6
:10019800803AC60080304602031DD428013026026A
:1001A800031CEC28FF302000A607FF30EB282708A7
:1001B800803AC6004508803A4602031DE5284408EF
:1001C80026020318EC2801302000A6070030A73DBE
:1001D800200026082704031D0B290130A400003045
:1001E800A50034033504031D072932083304031D11
:1001F800FF28013000290030C600C7014608C200A8
:100208004708C3008B212000B401B5010800270866
:10021800803AC6004508803A4602031D152944085D
:100228002602031C080001302000B4000030B5008D
:10023800A401A5014508A7004408A600080020005D
:1002480043083B06031D2A2942083A0603190800F9
:100258004308BB004208BA00420C2200031C0C11E0
:1002680003180C152000420C2200031C0E11031861
:100278000E15200042084304031D452922008E1450
:10028800472922008E1014302000C0000030C10021
:10029800EE2122000E118E1014302000C000003014
:1002A800C100EE210800200043083906031D5E291D
:1002B80042083806031908004308B9004208B80084
:1002C800420C2200031C8E1103188E152000420CCC
:1002D8002200031C0C1003180C14200042084304CD
:1002E800031D792922008C147B2922008C101430DC
:1002F8002000C0000030C100EE2122000C108C103C
:1003080014302000C0000030C100EE210800200099
:1003180043083306031D92294208320603190800D0
:100328004308B3004208B200420C2200031C8E129C
:1003380003188E162000420C2200031C0E1003180E
:100348000E14200042084304031DAD2922000E1696
:10035800AF2922000E1214302000C0000030C10066
:10036800EE2122000E100E1214302000C0000030C2
:10037800C100EE2108000030FC000030FB00003016
:10038800FA000030F900711CD1297508F9077608C0
:10039800FA3D7708FB3D7808FC3D0130F535F60D50
:1003A800F70DF80D890BD2290130F436F30CF20C55
:1003B800F10C890BD9297408730472047104031DA4
:1003C800C7297C08F4007B08F3007A08F200790852
:1003D800F100080020004008F1004108F200F30194
:1003E800F4010030F8000030F7000330F600E83080
:1003F800F500BF2174082000A3007308A20072084A
:10040800A1007108A0002308220421042004031974
:100418000800FF30A007FF30A13DFF30A23DFF30AC
:10042800A33D072A21000C108C100C110C168C16F9
:1004380023000C1221000E108E100E118E110E12B8
:100448008E1222008E120C118E1155220800712274
:1004580016224A226B2220003708C5003608C4003D
:10046800212020003708C5003608C400C8202F2ADC
:10047800FF34FF340134003419340034FF34FF34BE
:10048800FF34FF340134003400342D3400302000B0
:10049800C200C300232100302000C200C30057213E
:1004A800080021009E171E088F3960389E00FC3016
:1004B8009E051D140800640080010131890B602A23
:1004C8000034FE0012001E00FE0B662A00340030C5
:1004D8002000C200C3008B21080078302100990455
:0404E8009A0108006D
:020000040001F9
:04000E00E4F9FFFF13
:00000001FF
