:0400000000000D28C7
:100008007E14803120007F08F0007008FF007E1009
:1000180009000E282030840000308500183098230D
:1000280047308400833085003830860000308700F0
:100038000E309E237E102000152B20000C1A342829
:100048002B08803ACF0080304F02031D2D28013045
:100058002A02031C4528FF302000AA07FF30442845
:100068002B08803ACF004E08803A4F02031D3E28E5
:100078004D082A020318452801302000AA0700303D
:10008800AB3D20002A082B04031D8F280130A80748
:100098000030A93D40034104031D7C28420343046A
:1000A800031D5A280130AC000030AD002908803A01
:1000B800CF004508803A4F02031D642844082802EF
:1000C800031C8B2820003E083F04031D8B282E08A4
:1000D8002F04031D8B284508A9004408A800220006
:1000E8000C1101302000C8000030C900EA218B281B
:1000F80001302000AE000030AF00AC01AD0101308E
:10010800CB000030CC0076212000BE01BF012000CA
:10011800C201C30108002B08803ACF004E08803A7C
:100128004F02031D99284D082A02031C08002000CD
:100138003F08D1003E08D0002C032D04031DAC2835
:1001480050085104031DAC280030CB00CC007621A8
:100158002000400C2200031C0C1103180C15003061
:100168002000C800C900EA212000AE01AF01AC019F
:10017800AD010130C2000030C300A801A9014E083A
:10018800AB004D08AA00080020008C1ADB282708BD
:10019800803ACF0080304F02031DD4280130260258
:1001A800031CEC28FF302000A607FF30EB282708A7
:1001B800803ACF004E08803A4F02031DE5284D08CB
:1001C80026020318EC2801302000A6070030A73DBE
:1001D800200026082704031D0B290130A400003045
:1001E800A5003A033B04031D072938083904031DF9
:1001F800FF28013000290030CF00D0014F08CB0084
:100208005008CC00B0212000BA01BB010800270823
:10021800803ACF004E08803A4F02031D15294D0839
:100228002602031C080001302000BA000030BB0081
:10023800A401A5014E08A7004D08A6000800F90072
:1002480000308B1B0130F800043079020318302984
:1002580021307502031C3229FF3008007908F600A6
:10026800F7010530F635F70D890B36297608803EFB
:10027800FA003F30773DFB008B137B08F2007A08C9
:10028800F100CB22230015131515951675080319CF
:100298006D297B08230092007A0891000130FA0743
:1002A8000030FB3D74088600870101089300013087
:1002B800F6007608F4079401750303199512553072
:1002C8009600AA3096009514000000000130F5024F
:1002D8004A2923001511780C031C8B1303188B175C
:1002E8000030080020004C084106031D7D294B08FA
:1002F8004006031908004C08C1004B08C0004B0C0D
:100308002200031C0C1103180C1520004B0C2200B2
:10031800031C0E1103180E1520004B084C04031D76
:10032800982922008E149A2922008E101430200059
:10033800C6000030C700812222000E118E10200056
:100348004108CA004008C900552314302000C600DF
:100358000030C7008122080020004C083906031D20
:10036800B7294B083806031908004C08B9004B0890
:10037800B8004B0C2200031C8E1203188E162000A6
:100388004B0C2200031C0E1003180E1420004B08FF
:100398004C04031DD22922000E16D42922000E1265
:1003A80014302000C6000030C700812222000E1041
:1003B8000E1220003908CA003808C9006223143018
:1003C8002000C6000030C70081220800200049082C
:1003D8003F06031DF12948083E060319080049088D
:1003E800BF004808BE00480C2200031C8E110318E9
:1003F8008E152000480C2200031C0C1003180C1446
:10040800200048084904031D0C2A22008C140E2AD7
:1004180022008C1014302000C6000030C700812252
:1004280022000C108C1014302000C6000030C700C9
:1004380081220800FA007408F600F7010530F63545
:10044800F70D890B232A7608803EF8003F30773D68
:10045800F900213075020318352A04307402031C90
:100468004D2AFF3008007908F2007808F100E722E9
:100478007108F6007A088600870176088100013045
:10048800F8070030F93D0130F6007608FA07013028
:10049800F5027508031D372A003008000030FC00FB
:1004A8000030FB000030FA000030F900711C642AAB
:1004B8007508F9077608FA3D7708FB3D7808FC3D92
:1004C8000130F535F60DF70DF80D890B652A013069
:1004D800F436F30CF20CF10C890B6C2A74087304D3
:1004E80072047104031D5A2A7C08F4007B08F30087
:1004F8007A08F2007908F100080020004608F100A7
:100508004708F200F301F4010030F8000030F7006A
:100518000330F600E830F500522274082000A300EA
:100528007308A2007208A1007108A0002308220421
:100538002104200403190800FF30A007FF30A13D63
:10054800FF30A23DFF30A33D9A2A20003008310435
:10055800031D0800F401F40A0430FB007B08F500D1
:1005680034301E22FC007C082000C6003403350409
:100578000319C02AB401B501360337040319C62A82
:10058800B601B7010130B0000030B10008000030FA
:100598008B1B0130F3008B13710823009100720844
:1005A800920015131516151555309600AA309600A9
:1005B80095140000000023001511730C031C8B1305
:1005C80003188B17080000308B1B0130F3008B13C6
:1005D8007108230091007208920015131514000089
:1005E8000000730C031C8B1303188B1723001408CB
:1005F800F2001308F100080021000C108C100C11F7
:100608000C168C1623000C1221000E108E100E11E1
:100618008E110E128E1222008E120C118E1187234B
:100628000800A923002326236F2320003D08CE00BD
:100638003C08CD00212020003D08CE003C08CD001C
:10064800C820192B912320004808CE004708CD0068
:100658004E08CC004D08CB00762100302000C800A1
:10066800C900EA21080034302000C6004608F4001A
:100678000430C7004708F500013023212000C800D6
:100688004808FC000800FF34FF34013400341934F2
:100698000034FF34FF34FF34FF34013400340034B5
:1006A8002D34200049034A0403195C2BC901CA01EF
:1006B8004A08B5004908B400372308002000490358
:1006C8004A040319692BC901CA014A08B700490835
:1006D800B600372308007B2320004808CE004708CF
:1006E800CD004E08CC004D08CB00B02108002000FA
:1006F80030083104031D812BA42320003708C800CB
:100708003608C700080021009E171E088F39603878
:100718009E00FC309E051D140800A9222000350803
:10072800C8003408C7000800640080010131890B43
:10073800992B0034FE0012001E00FE0B9F2B003484
:100748002000B001B101A9220800783021009904E5
:040758009A010800FA
:020000040001F9
:04000E00E4F9FFFF13
:00000001FF
