:020000000D28C9
:100008007E14803120007F08F0007008FF007E1009
:1000180009000E2820308400003085001830552251
:100028004D308400823085004130860000308700E2
:1000380008305B227E102000162A20000C1A342873
:100048002F08803ABE0080303E02031D2D28013063
:100058002E02031C4528FF302000AE07FF3044283D
:100068002F08803ABE003D08803A3E02031D3E2814
:100078003C082E020318452801302000AE07003046
:10008800AF3D20002E082F04031D8F280130AC0738
:100098000030AD3D30033104031D7C284503460480
:1000A800031D5A280130B2000030B3002D08803AF1
:1000B800BE004808803A3E02031D642847082C0207
:1000C800031C8B2820002A082B04031D8B283408C6
:1000D8003504031D8B284808AD004708AC002200F2
:1000E8000C1101302000BA000030BB0057218B28CA
:1000F80001302000B4000030B500B201B301013076
:10010800BA000030BB0023212000AA01AB01200067
:10011800C501C60108002F08803ABE003D08803A94
:100128003E02031D99283C082E02031C08002000EB
:100138002B08C0002A08BF0032033304031DAC2873
:100148003F084004031DAC280030BA00BB0023213F
:100158002000300C2200031C0C1103180C15003071
:100168002000BA00BB0057212000B401B501B2013C
:10017800B3010130C5000030C600AC01AD013D0837
:10018800AF003C08AE00080020008C1ADB282708C6
:10019800803ABE0080303E02031DD428013026027A
:1001A800031CEC28FF302000A607FF30EB282708A7
:1001B800803ABE003D08803A3E02031DE5283C080F
:1001C80026020318EC2801302000A6070030A73DBE
:1001D800200026082704031D0B290130A400003045
:1001E800A50041034204031D072928082904031D0B
:1001F800FF28013000290030BE00BF013E08BA00C8
:100208003F08BB008B212000C101C201080027085C
:10021800803ABE003D08803A3E02031D15293C087D
:100228002602031C080001302000C1000030C20073
:10023800A401A5013D08A7003C08A600080020006D
:100248003B083106031D2A293A083006031908001D
:100258003B08B1003A08B0003A0C2200031C0C110C
:1002680003180C1520003A0C2200031C0E11031869
:100278000E1520003A083B04031D452922008E1460
:10028800472922008E1014302000B8000030B90031
:10029800EE2122000E118E1014302000B80000301C
:1002A800B900EE21080020003B082B06031D5E293B
:1002B8003A082A06031908003B08AB003A08AA00C6
:1002C8003A0C2200031C8E1103188E1520003A0CDC
:1002D8002200031C0C1003180C1420003A083B04DD
:1002E800031D792922008C147B2922008C101430DC
:1002F8002000B8000030B900EE2122000C108C104C
:1003080014302000B8000030B900EE2108002000A9
:100318003B082906031D92293A08280603190800F4
:100328003B08A9003A08A8003A0C2200031C8E12C8
:1003380003188E1620003A0C2200031C0E10031816
:100348000E1420003A083B04031DAD2922000E16A6
:10035800AF2922000E1214302000B8000030B90076
:10036800EE2122000E100E1214302000B8000030CA
:10037800B900EE2108000030FC000030FB0000301E
:10038800FA000030F900711CD1297508F9077608C0
:10039800FA3D7708FB3D7808FC3D0130F535F60D50
:1003A800F70DF80D890BD2290130F436F30CF20C55
:1003B800F10C890BD9297408730472047104031DA4
:1003C800C7297C08F4007B08F3007A08F200790852
:1003D800F100080020003808F1003908F200F301A4
:1003E800F4010030F8000030F7000330F600E83080
:1003F800F500BF2174082000A3007308A20072084A
:10040800A1007108A0002308220421042004031974
:100418000800FF30A007FF30A13DFF30A23DFF30AC
:10042800A33D072A67222722382261222000440898
:10043800BD004308BC00212020004408BD0043083B
:10044800BC00C8201A2A21000C108C100C110C16A4
:100458008C1623000C1221000E108E100E118E1116
:100468000E128E124322080000302000BA00BB0092
:10047800232100302000BA00BB00572108002100CA
:100488009E171E088F3960389E00FC309E051D148B
:1004980008000134003419340034013400340034C5
:1004A8002D34640080010131890B562A0034FE0086
:1004B80012001E00FE0B5C2A003400302000BA0037
:1004C800BB008B2108007830210099049A010800AC
:020000040001F9
:04000E00E4F9FFFF13
:00000001FF
